{
  "contractName": "KTMCoinSale",
  "abi": [
    {
      "inputs": [
        {
          "internalType": "contract KTMCoin",
          "name": "_tokenContract",
          "type": "address"
        }
      ],
      "stateMutability": "nonpayable",
      "type": "constructor"
    },
    {
      "inputs": [],
      "name": "tokenContract",
      "outputs": [
        {
          "internalType": "contract KTMCoin",
          "name": "",
          "type": "address"
        }
      ],
      "stateMutability": "view",
      "type": "function",
      "constant": true
    }
  ],
  "bytecode": "0x608060405234801561001057600080fd5b506040516102993803806102998339818101604052810190610032919061012e565b336000806101000a81548173ffffffffffffffffffffffffffffffffffffffff021916908373ffffffffffffffffffffffffffffffffffffffff16021790555080600160006101000a81548173ffffffffffffffffffffffffffffffffffffffff021916908373ffffffffffffffffffffffffffffffffffffffff1602179055505061015b565b600080fd5b600073ffffffffffffffffffffffffffffffffffffffff82169050919050565b60006100e9826100be565b9050919050565b60006100fb826100de565b9050919050565b61010b816100f0565b811461011657600080fd5b50565b60008151905061012881610102565b92915050565b600060208284031215610144576101436100b9565b5b600061015284828501610119565b91505092915050565b61012f8061016a6000396000f3fe6080604052348015600f57600080fd5b506004361060285760003560e01c806355a373d614602d575b600080fd5b60336047565b604051603e919060e0565b60405180910390f35b600160009054906101000a900473ffffffffffffffffffffffffffffffffffffffff1681565b600073ffffffffffffffffffffffffffffffffffffffff82169050919050565b6000819050919050565b600060ac60a860a484606d565b608d565b606d565b9050919050565b600060bc826097565b9050919050565b600060cc8260b3565b9050919050565b60da8160c3565b82525050565b600060208201905060f3600083018460d3565b9291505056fea2646970667358221220a57bb08e41e68bbb12ad9f26642d2e36b5ad48a01ff7cb3e9c6d788a43dc4f5664736f6c634300080a0033",
  "immutableReferences": {},
  "source": "pragma solidity >=0.4.22 <0.9.0;\r\nimport \"./KTMCoin.sol\";\r\n\r\ncontract KTMCoinSale {\r\n    address admin;\r\n    KTMCoin public tokenContract;\r\n\r\n\r\n    constructor(KTMCoin _tokenContract) {\r\n        // assign an admin for sale\r\n        admin = msg.sender;\r\n\r\n        tokenContract = _tokenContract;\r\n\r\n        // gurkha coin connection\r\n\r\n        // coin price\r\n\r\n    }\r\n}",
  "sourcePath": "C:\\Users\\Dhira\\gurkha_coin\\gurkha_sale\\contracts\\KTMCoinSale.sol",
  "compiler": {
    "name": "solc",
    "version": "0.8.10+commit.fc410830.Emscripten.clang"
  },
  "schemaVersion": "3.4.3",
  "updatedAt": "2021-11-28T17:45:00.188Z",
  "networkType": "ethereum",
  "devdoc": {
    "kind": "dev",
    "methods": {},
    "version": 1
  },
  "userdoc": {
    "kind": "user",
    "methods": {},
    "version": 1
  }
}