{
  "contractName": "KTMCoin",
  "abi": [
    {
      "inputs": [
        {
          "internalType": "uint256",
          "name": "_initialSupply",
          "type": "uint256"
        }
      ],
      "stateMutability": "nonpayable",
      "type": "constructor"
    },
    {
      "anonymous": false,
      "inputs": [
        {
          "indexed": true,
          "internalType": "address",
          "name": "_owner",
          "type": "address"
        },
        {
          "indexed": true,
          "internalType": "address",
          "name": "_spender",
          "type": "address"
        },
        {
          "indexed": false,
          "internalType": "uint256",
          "name": "value",
          "type": "uint256"
        }
      ],
      "name": "Approval",
      "type": "event"
    },
    {
      "anonymous": false,
      "inputs": [
        {
          "indexed": true,
          "internalType": "address",
          "name": "_from",
          "type": "address"
        },
        {
          "indexed": true,
          "internalType": "address",
          "name": "_to",
          "type": "address"
        },
        {
          "indexed": false,
          "internalType": "uint256",
          "name": "value",
          "type": "uint256"
        }
      ],
      "name": "Transfer",
      "type": "event"
    },
    {
      "inputs": [
        {
          "internalType": "address",
          "name": "",
          "type": "address"
        },
        {
          "internalType": "address",
          "name": "",
          "type": "address"
        }
      ],
      "name": "allowance",
      "outputs": [
        {
          "internalType": "uint256",
          "name": "",
          "type": "uint256"
        }
      ],
      "stateMutability": "view",
      "type": "function",
      "constant": true
    },
    {
      "inputs": [
        {
          "internalType": "address",
          "name": "",
          "type": "address"
        }
      ],
      "name": "balanceof",
      "outputs": [
        {
          "internalType": "uint256",
          "name": "",
          "type": "uint256"
        }
      ],
      "stateMutability": "view",
      "type": "function",
      "constant": true
    },
    {
      "inputs": [],
      "name": "name",
      "outputs": [
        {
          "internalType": "string",
          "name": "",
          "type": "string"
        }
      ],
      "stateMutability": "view",
      "type": "function",
      "constant": true
    },
    {
      "inputs": [],
      "name": "standard",
      "outputs": [
        {
          "internalType": "string",
          "name": "",
          "type": "string"
        }
      ],
      "stateMutability": "view",
      "type": "function",
      "constant": true
    },
    {
      "inputs": [],
      "name": "symbol",
      "outputs": [
        {
          "internalType": "string",
          "name": "",
          "type": "string"
        }
      ],
      "stateMutability": "view",
      "type": "function",
      "constant": true
    },
    {
      "inputs": [],
      "name": "totalSupply",
      "outputs": [
        {
          "internalType": "uint256",
          "name": "",
          "type": "uint256"
        }
      ],
      "stateMutability": "view",
      "type": "function",
      "constant": true
    },
    {
      "inputs": [
        {
          "internalType": "address",
          "name": "_to",
          "type": "address"
        },
        {
          "internalType": "uint256",
          "name": "_value",
          "type": "uint256"
        }
      ],
      "name": "transfer",
      "outputs": [
        {
          "internalType": "bool",
          "name": "success",
          "type": "bool"
        }
      ],
      "stateMutability": "nonpayable",
      "type": "function"
    },
    {
      "inputs": [
        {
          "internalType": "address",
          "name": "_spender",
          "type": "address"
        },
        {
          "internalType": "uint256",
          "name": "_value",
          "type": "uint256"
        }
      ],
      "name": "approve",
      "outputs": [
        {
          "internalType": "bool",
          "name": "success",
          "type": "bool"
        }
      ],
      "stateMutability": "nonpayable",
      "type": "function"
    },
    {
      "inputs": [
        {
          "internalType": "address",
          "name": "_from",
          "type": "address"
        },
        {
          "internalType": "address",
          "name": "_to",
          "type": "address"
        },
        {
          "internalType": "uint256",
          "name": "_value",
          "type": "uint256"
        }
      ],
      "name": "transferFrom",
      "outputs": [
        {
          "internalType": "bool",
          "name": "success",
          "type": "bool"
        }
      ],
      "stateMutability": "nonpayable",
      "type": "function"
    }
  ],
  "bytecode": "0x60806040526040518060400160405280600b81526020017f4775726b686120436f696e000000000000000000000000000000000000000000815250600190805190602001906200005192919062000173565b506040518060400160405280600481526020017f47524b4300000000000000000000000000000000000000000000000000000000815250600290805190602001906200009f92919062000173565b506040518060400160405280601081526020017f4775726b686120436f696e2076312e300000000000000000000000000000000081525060039080519060200190620000ed92919062000173565b50348015620000fb57600080fd5b5060405162000fdc38038062000fdc833981810160405281019062000121919062000263565b80600460003373ffffffffffffffffffffffffffffffffffffffff1673ffffffffffffffffffffffffffffffffffffffff168152602001908152602001600020819055508060008190555050620002fa565b8280546200018190620002c4565b90600052602060002090601f016020900481019282620001a55760008555620001f1565b82601f10620001c057805160ff1916838001178555620001f1565b82800160010185558215620001f1579182015b82811115620001f0578251825591602001919060010190620001d3565b5b50905062000200919062000204565b5090565b5b808211156200021f57600081600090555060010162000205565b5090565b600080fd5b6000819050919050565b6200023d8162000228565b81146200024957600080fd5b50565b6000815190506200025d8162000232565b92915050565b6000602082840312156200027c576200027b62000223565b5b60006200028c848285016200024c565b91505092915050565b7f4e487b7100000000000000000000000000000000000000000000000000000000600052602260045260246000fd5b60006002820490506001821680620002dd57607f821691505b60208210811415620002f457620002f362000295565b5b50919050565b610cd2806200030a6000396000f3fe608060405234801561001057600080fd5b50600436106100935760003560e01c80633d64125b116100665780633d64125b146101345780635a3b7e421461016457806395d89b4114610182578063a9059cbb146101a0578063dd62ed3e146101d057610093565b806306fdde0314610098578063095ea7b3146100b657806318160ddd146100e657806323b872dd14610104575b600080fd5b6100a0610200565b6040516100ad9190610967565b60405180910390f35b6100d060048036038101906100cb9190610a22565b61028e565b6040516100dd9190610a7d565b60405180910390f35b6100ee610380565b6040516100fb9190610aa7565b60405180910390f35b61011e60048036038101906101199190610ac2565b610386565b60405161012b9190610a7d565b60405180910390f35b61014e60048036038101906101499190610b15565b61060c565b60405161015b9190610aa7565b60405180910390f35b61016c610624565b6040516101799190610967565b60405180910390f35b61018a6106b2565b6040516101979190610967565b60405180910390f35b6101ba60048036038101906101b59190610a22565b610740565b6040516101c79190610a7d565b60405180910390f35b6101ea60048036038101906101e59190610b42565b6108a9565b6040516101f79190610aa7565b60405180910390f35b6001805461020d90610bb1565b80601f016020809104026020016040519081016040528092919081815260200182805461023990610bb1565b80156102865780601f1061025b57610100808354040283529160200191610286565b820191906000526020600020905b81548152906001019060200180831161026957829003601f168201915b505050505081565b600081600560003373ffffffffffffffffffffffffffffffffffffffff1673ffffffffffffffffffffffffffffffffffffffff16815260200190815260200160002060008573ffffffffffffffffffffffffffffffffffffffff1673ffffffffffffffffffffffffffffffffffffffff168152602001908152602001600020819055508273ffffffffffffffffffffffffffffffffffffffff163373ffffffffffffffffffffffffffffffffffffffff167f8c5be1e5ebec7d5bd14f71427d1e84f3dd0314c0f7b2291e5b200ac8c7c3b9258460405161036e9190610aa7565b60405180910390a36001905092915050565b60005481565b6000600460008573ffffffffffffffffffffffffffffffffffffffff1673ffffffffffffffffffffffffffffffffffffffff168152602001908152602001600020548211156103d457600080fd5b600560008573ffffffffffffffffffffffffffffffffffffffff1673ffffffffffffffffffffffffffffffffffffffff16815260200190815260200160002060003373ffffffffffffffffffffffffffffffffffffffff1673ffffffffffffffffffffffffffffffffffffffff1681526020019081526020016000205482111561045d57600080fd5b81600460008673ffffffffffffffffffffffffffffffffffffffff1673ffffffffffffffffffffffffffffffffffffffff16815260200190815260200160002060008282546104ac9190610c12565b9250508190555081600460008573ffffffffffffffffffffffffffffffffffffffff1673ffffffffffffffffffffffffffffffffffffffff16815260200190815260200160002060008282546105029190610c46565b9250508190555081600560008673ffffffffffffffffffffffffffffffffffffffff1673ffffffffffffffffffffffffffffffffffffffff16815260200190815260200160002060003373ffffffffffffffffffffffffffffffffffffffff1673ffffffffffffffffffffffffffffffffffffffff16815260200190815260200160002060008282546105959190610c12565b925050819055508273ffffffffffffffffffffffffffffffffffffffff168473ffffffffffffffffffffffffffffffffffffffff167fddf252ad1be2c89b69c2b068fc378daa952ba7f163c4a11628f55a4df523b3ef846040516105f99190610aa7565b60405180910390a3600190509392505050565b60046020528060005260406000206000915090505481565b6003805461063190610bb1565b80601f016020809104026020016040519081016040528092919081815260200182805461065d90610bb1565b80156106aa5780601f1061067f576101008083540402835291602001916106aa565b820191906000526020600020905b81548152906001019060200180831161068d57829003601f168201915b505050505081565b600280546106bf90610bb1565b80601f01602080910402602001604051908101604052809291908181526020018280546106eb90610bb1565b80156107385780601f1061070d57610100808354040283529160200191610738565b820191906000526020600020905b81548152906001019060200180831161071b57829003601f168201915b505050505081565b600081600460003373ffffffffffffffffffffffffffffffffffffffff1673ffffffffffffffffffffffffffffffffffffffff16815260200190815260200160002054101561078e57600080fd5b81600460003373ffffffffffffffffffffffffffffffffffffffff1673ffffffffffffffffffffffffffffffffffffffff16815260200190815260200160002060008282546107dd9190610c12565b9250508190555081600460008573ffffffffffffffffffffffffffffffffffffffff1673ffffffffffffffffffffffffffffffffffffffff16815260200190815260200160002060008282546108339190610c46565b925050819055508273ffffffffffffffffffffffffffffffffffffffff163373ffffffffffffffffffffffffffffffffffffffff167fddf252ad1be2c89b69c2b068fc378daa952ba7f163c4a11628f55a4df523b3ef846040516108979190610aa7565b60405180910390a36001905092915050565b6005602052816000526040600020602052806000526040600020600091509150505481565b600081519050919050565b600082825260208201905092915050565b60005b838110156109085780820151818401526020810190506108ed565b83811115610917576000848401525b50505050565b6000601f19601f8301169050919050565b6000610939826108ce565b61094381856108d9565b93506109538185602086016108ea565b61095c8161091d565b840191505092915050565b60006020820190508181036000830152610981818461092e565b905092915050565b600080fd5b600073ffffffffffffffffffffffffffffffffffffffff82169050919050565b60006109b98261098e565b9050919050565b6109c9816109ae565b81146109d457600080fd5b50565b6000813590506109e6816109c0565b92915050565b6000819050919050565b6109ff816109ec565b8114610a0a57600080fd5b50565b600081359050610a1c816109f6565b92915050565b60008060408385031215610a3957610a38610989565b5b6000610a47858286016109d7565b9250506020610a5885828601610a0d565b9150509250929050565b60008115159050919050565b610a7781610a62565b82525050565b6000602082019050610a926000830184610a6e565b92915050565b610aa1816109ec565b82525050565b6000602082019050610abc6000830184610a98565b92915050565b600080600060608486031215610adb57610ada610989565b5b6000610ae9868287016109d7565b9350506020610afa868287016109d7565b9250506040610b0b86828701610a0d565b9150509250925092565b600060208284031215610b2b57610b2a610989565b5b6000610b39848285016109d7565b91505092915050565b60008060408385031215610b5957610b58610989565b5b6000610b67858286016109d7565b9250506020610b78858286016109d7565b9150509250929050565b7f4e487b7100000000000000000000000000000000000000000000000000000000600052602260045260246000fd5b60006002820490506001821680610bc957607f821691505b60208210811415610bdd57610bdc610b82565b5b50919050565b7f4e487b7100000000000000000000000000000000000000000000000000000000600052601160045260246000fd5b6000610c1d826109ec565b9150610c28836109ec565b925082821015610c3b57610c3a610be3565b5b828203905092915050565b6000610c51826109ec565b9150610c5c836109ec565b9250827fffffffffffffffffffffffffffffffffffffffffffffffffffffffffffffffff03821115610c9157610c90610be3565b5b82820190509291505056fea264697066735822122018719f2b764920b51d1d9113f1b1e5a8c035f50cd21cdc1919dbd56369d3329664736f6c634300080a0033",
  "immutableReferences": {},
  "source": "pragma solidity >=0.4.22 <0.9.0;\r\n\r\ncontract KTMCoin {\r\n    uint256 public totalSupply;\r\n    string public name = 'Gurkha Coin';\r\n    string public symbol = 'GRKC';\r\n    string public standard = 'Gurkha Coin v1.0';\r\n    \r\n    event Transfer(\r\n        address indexed _from,\r\n        address indexed _to,\r\n        uint256 value\r\n    );\r\n\r\n    event Approval(\r\n        address indexed _owner,\r\n        address indexed _spender, \r\n        uint256 value\r\n    );\r\n\r\n    //transfer\r\n\r\n    mapping(address => uint256) public balanceof;\r\n\r\n    //allowance\r\n    mapping(address => mapping(address => uint256)) public allowance;\r\n\r\n    constructor (uint256 _initialSupply) {\r\n        balanceof[msg.sender] = _initialSupply;\r\n        totalSupply = _initialSupply;\r\n    }\r\n\r\n\r\n    function transfer(address _to, uint256 _value) public returns (bool success) {\r\n        // Throw exception if acccount doesnt have enough coins\r\n        require(balanceof[msg.sender] >= _value);\r\n\r\n        //Transfer the balance\r\n        balanceof[msg.sender] -= _value;\r\n        balanceof[_to] += _value;\r\n\r\n        emit Transfer(msg.sender, _to, _value);\r\n        return true;\r\n    }\r\n\r\n    // approve function \r\n    function approve(address _spender, uint256 _value) public returns (bool success) {\r\n        //handle the allowance\r\n        allowance[msg.sender][_spender] = _value;\r\n\r\n        // Approve Event\r\n        emit Approval(msg.sender, _spender, _value);\r\n        return true;\r\n    }\r\n    // transferFrom \r\n\r\n    function transferFrom(address _from, address _to, uint256 _value) public returns (bool success) {\r\n\r\n        //allowance \r\n\r\n        // Require\r\n        require(_value <= balanceof[_from]);\r\n        require(_value <= allowance[_from][msg.sender]);\r\n\r\n        balanceof[_from]  -= _value;\r\n        balanceof[_to]  += _value;\r\n\r\n        allowance[_from][msg.sender] -= _value;\r\n\r\n        emit Transfer(_from, _to, _value);\r\n\r\n        return true;\r\n    }\r\n\r\n    // Set the total number of coins\r\n\r\n    // Read the total number of coins\r\n}",
  "sourcePath": "C:\\Users\\Dhira\\gurkha_coin\\gurkha_sale\\contracts\\KTMCoin.sol",
  "compiler": {
    "name": "solc",
    "version": "0.8.10+commit.fc410830.Emscripten.clang"
  },
  "schemaVersion": "3.4.3",
  "updatedAt": "2021-11-28T17:45:00.177Z",
  "networkType": "ethereum",
  "devdoc": {
    "kind": "dev",
    "methods": {},
    "version": 1
  },
  "userdoc": {
    "kind": "user",
    "methods": {},
    "version": 1
  }
}